{
  "contractName": "Doctor",
  "abi": [
    {
      "constant": false,
      "inputs": [
        {
          "name": "_firstName",
          "type": "string"
        },
        {
          "name": "_secondName",
          "type": "string"
        },
        {
          "name": "_email",
          "type": "string"
        },
        {
          "name": "_passportData",
          "type": "string"
        }
      ],
      "name": "setInfo",
      "outputs": [],
      "payable": false,
      "stateMutability": "nonpayable",
      "type": "function"
    },
    {
      "constant": false,
      "inputs": [
        {
          "name": "_email",
          "type": "string"
        }
      ],
      "name": "setEmail",
      "outputs": [],
      "payable": false,
      "stateMutability": "nonpayable",
      "type": "function"
    },
    {
      "constant": false,
      "inputs": [
        {
          "name": "_passportData",
          "type": "string"
        }
      ],
      "name": "setPassporData",
      "outputs": [],
      "payable": false,
      "stateMutability": "nonpayable",
      "type": "function"
    },
    {
      "constant": false,
      "inputs": [
        {
          "name": "_firstName",
          "type": "string"
        },
        {
          "name": "_secondName",
          "type": "string"
        }
      ],
      "name": "setName",
      "outputs": [],
      "payable": false,
      "stateMutability": "nonpayable",
      "type": "function"
    },
    {
      "constant": true,
      "inputs": [],
      "name": "getFirstName",
      "outputs": [
        {
          "name": "",
          "type": "string"
        }
      ],
      "payable": false,
      "stateMutability": "view",
      "type": "function"
    },
    {
      "constant": false,
      "inputs": [
        {
          "name": "_firstName",
          "type": "string"
        },
        {
          "name": "_secondName",
          "type": "string"
        },
        {
          "name": "_email",
          "type": "string"
        },
        {
          "name": "_id",
          "type": "uint256"
        },
        {
          "name": "_passportData",
          "type": "string"
        }
      ],
      "name": "setInfo",
      "outputs": [],
      "payable": false,
      "stateMutability": "nonpayable",
      "type": "function"
    },
    {
      "constant": false,
      "inputs": [
        {
          "name": "_firstName",
          "type": "string"
        }
      ],
      "name": "setName",
      "outputs": [],
      "payable": false,
      "stateMutability": "nonpayable",
      "type": "function"
    },
    {
      "inputs": [
        {
          "name": "_owner",
          "type": "address"
        },
        {
          "name": "_interactionContractAddress",
          "type": "address"
        }
      ],
      "payable": false,
      "stateMutability": "nonpayable",
      "type": "constructor"
    },
    {
      "constant": false,
      "inputs": [
        {
          "name": "_patient",
          "type": "address"
        }
      ],
      "name": "addPatient",
      "outputs": [],
      "payable": false,
      "stateMutability": "nonpayable",
      "type": "function"
    },
    {
      "constant": true,
      "inputs": [],
      "name": "getPatients",
      "outputs": [
        {
          "name": "",
          "type": "address[]"
        }
      ],
      "payable": false,
      "stateMutability": "view",
      "type": "function"
    }
  ],
  "bytecode": "0x608060405234801561001057600080fd5b50604051604080610e648339810180604052604081101561003057600080fd5b50805160209091015160018054600160a060020a03938416600160a060020a03199182161790915560008054939092169281168317909155600280549091169091179055610de1806100836000396000f3fe608060405234801561001057600080fd5b50600436106100b0576000357c0100000000000000000000000000000000000000000000000000000000900480635c707f07116100835780635c707f07146104965780636d263ceb146105c3578063932997f1146105e95780639f1f00d314610666578063c47f0027146108a9576100b0565b806312ad1c37146100b55780631873f41a1461010d578063282b065a1461034a5780635a885fa5146103f0575b600080fd5b6100bd61094f565b60408051602080825283518183015283519192839290830191858101910280838360005b838110156100f95781810151838201526020016100e1565b505050509050019250505060405180910390f35b6103486004803603608081101561012357600080fd5b81019060208101813564010000000081111561013e57600080fd5b82018360208201111561015057600080fd5b8035906020019184600183028401116401000000008311171561017257600080fd5b91908080601f01602080910402602001604051908101604052809392919081815260200183838082843760009201919091525092959493602081019350359150506401000000008111156101c557600080fd5b8201836020820111156101d757600080fd5b803590602001918460018302840111640100000000831117156101f957600080fd5b91908080601f016020809104026020016040519081016040528093929190818152602001838380828437600092019190915250929594936020810193503591505064010000000081111561024c57600080fd5b82018360208201111561025e57600080fd5b8035906020019184600183028401116401000000008311171561028057600080fd5b91908080601f01602080910402602001604051908101604052809392919081815260200183838082843760009201919091525092959493602081019350359150506401000000008111156102d357600080fd5b8201836020820111156102e557600080fd5b8035906020019184600183028401116401000000008311171561030757600080fd5b91908080601f0160208091040260200160405190810160405280939291908181526020018383808284376000920191909152509295506109db945050505050565b005b6103486004803603602081101561036057600080fd5b81019060208101813564010000000081111561037b57600080fd5b82018360208201111561038d57600080fd5b803590602001918460018302840111640100000000831117156103af57600080fd5b91908080601f016020809104026020016040519081016040528093929190818152602001838380828437600092019190915250929550610a5a945050505050565b6103486004803603602081101561040657600080fd5b81019060208101813564010000000081111561042157600080fd5b82018360208201111561043357600080fd5b8035906020019184600183028401116401000000008311171561045557600080fd5b91908080601f016020809104026020016040519081016040528093929190818152602001838380828437600092019190915250929550610a9a945050505050565b610348600480360360408110156104ac57600080fd5b8101906020810181356401000000008111156104c757600080fd5b8201836020820111156104d957600080fd5b803590602001918460018302840111640100000000831117156104fb57600080fd5b91908080601f016020809104026020016040519081016040528093929190818152602001838380828437600092019190915250929594936020810193503591505064010000000081111561054e57600080fd5b82018360208201111561056057600080fd5b8035906020019184600183028401116401000000008311171561058257600080fd5b91908080601f016020809104026020016040519081016040528093929190818152602001838380828437600092019190915250929550610ad5945050505050565b610348600480360360208110156105d957600080fd5b5035600160a060020a0316610b29565b6105f1610bae565b6040805160208082528351818301528351919283929083019185019080838360005b8381101561062b578181015183820152602001610613565b50505050905090810190601f1680156106585780820380516001836020036101000a031916815260200191505b509250505060405180910390f35b610348600480360360a081101561067c57600080fd5b81019060208101813564010000000081111561069757600080fd5b8201836020820111156106a957600080fd5b803590602001918460018302840111640100000000831117156106cb57600080fd5b91908080601f016020809104026020016040519081016040528093929190818152602001838380828437600092019190915250929594936020810193503591505064010000000081111561071e57600080fd5b82018360208201111561073057600080fd5b8035906020019184600183028401116401000000008311171561075257600080fd5b91908080601f01602080910402602001604051908101604052809392919081815260200183838082843760009201919091525092959493602081019350359150506401000000008111156107a557600080fd5b8201836020820111156107b757600080fd5b803590602001918460018302840111640100000000831117156107d957600080fd5b91908080601f0160208091040260200160405190810160405280939291908181526020018383808284376000920191909152509295843595909490935060408101925060200135905064010000000081111561083457600080fd5b82018360208201111561084657600080fd5b8035906020019184600183028401116401000000008311171561086857600080fd5b91908080601f016020809104026020016040519081016040528093929190818152602001838380828437600092019190915250929550610c3b945050505050565b610348600480360360208110156108bf57600080fd5b8101906020810181356401000000008111156108da57600080fd5b8201836020820111156108ec57600080fd5b8035906020019184600183028401116401000000008311171561090e57600080fd5b91908080601f016020809104026020016040519081016040528093929190818152602001838380828437600092019190915250929550610ce6945050505050565b600154606090600160a060020a03163314806109755750600254600160a060020a031633145b156109d85760088054806020026020016040519081016040528092919081815260200182805480156109d057602002820191906000526020600020905b8154600160a060020a031681526001909101906020018083116109b2575b505050505090505b90565b600154600160a060020a03163314806109fe5750600254600160a060020a031633145b15610a54578351610a16906003906020870190610d1d565b508251610a2a906004906020860190610d1d565b508151610a3e906005906020850190610d1d565b508051610a52906007906020840190610d1d565b505b50505050565b600154600160a060020a0316331480610a7d5750600254600160a060020a031633145b15610a97578051610a95906005906020840190610d1d565b505b50565b600154600160a060020a0316331480610abd5750600254600160a060020a031633145b15610a97578051610a95906007906020840190610d1d565b600154600160a060020a0316331480610af85750600254600160a060020a031633145b15610a95578151610b10906003906020850190610d1d565b508051610b24906004906020840190610d1d565b505050565b600154600160a060020a0316331480610b4c5750600254600160a060020a031633145b15610a9757600880546001810182556000919091527ff3f7a9fe364faab93b216da50a3214154f22a0a2b415b23a84c8169e8b636ee3018054600160a060020a03831673ffffffffffffffffffffffffffffffffffffffff1990911617905550565b60038054604080516020601f60026000196101006001881615020190951694909404938401819004810282018101909252828152606093909290918301828280156109d05780601f10610c0f576101008083540402835291602001916109d0565b820191906000526020600020905b815481529060010190602001808311610c1d57509395945050505050565b600654610a52576040805160a0810182528681526020808201879052918101859052606081018490526080810183905286519091600391610c81918391908a0190610d1d565b506020828101518051610c9a9260018501920190610d1d565b5060408201518051610cb6916002840191602090910190610d1d565b506060820151600382015560808201518051610cdc916004840191602090910190610d1d565b5050505050505050565b600154600160a060020a0316331480610d095750600254600160a060020a031633145b15610a97578051610a959060039060208401905b828054600181600116156101000203166002900490600052602060002090601f016020900481019282601f10610d5e57805160ff1916838001178555610d8b565b82800160010185558215610d8b579182015b82811115610d8b578251825591602001919060010190610d70565b50610d97929150610d9b565b5090565b6109d891905b80821115610d975760008155600101610da156fea165627a7a7230582071efb4b4c44bdd08980cd60437d5836514ab4ef64898e3fbe291162f9c93244e0029",
  "source": "pragma solidity >=0.4.21 <0.6.0;\n\nimport './Person.sol';\n\ncontract Doctor is Person {\n  address[] private patients;\n\n  constructor(address _owner, address _interactionContractAddress) public Person(_owner, _interactionContractAddress) {\n  }\n\n  function addPatient(address _patient) public onlyOwner {\n    patients.push(_patient);\n  }\n\n  function getPatients() public onlyOwner view returns (address[] memory) {\n    return patients;\n  }\n}\n",
  "sourcePath": "/Users/admin/Documents/Projects/medicine_confidense/contracts/Doctor.sol",
  "compiler": {
    "name": "solc",
    "version": "0.5.8+commit.23d335f2.Emscripten.clang"
  },
  "schemaVersion": "3.0.16",
  "updatedAt": "2019-12-11T14:19:19.857Z",
  "devdoc": {
    "methods": {}
  },
  "userdoc": {
    "methods": {}
  }
}