{
  "contractName": "Interaction",
  "abi": [
    {
      "inputs": [],
      "payable": false,
      "stateMutability": "nonpayable",
      "type": "constructor"
    },
    {
      "anonymous": false,
      "inputs": [
        {
          "indexed": false,
          "name": "patient",
          "type": "address"
        },
        {
          "indexed": false,
          "name": "doctor",
          "type": "address"
        },
        {
          "indexed": false,
          "name": "entry",
          "type": "bytes32[]"
        }
      ],
      "name": "RequestWriteHistory",
      "type": "event"
    },
    {
      "anonymous": false,
      "inputs": [
        {
          "indexed": false,
          "name": "patient",
          "type": "address"
        },
        {
          "indexed": false,
          "name": "doctor",
          "type": "address"
        },
        {
          "indexed": false,
          "name": "entry",
          "type": "bytes32[]"
        }
      ],
      "name": "EntryAddedByDoctor",
      "type": "event"
    },
    {
      "anonymous": false,
      "inputs": [
        {
          "indexed": false,
          "name": "patient",
          "type": "address"
        },
        {
          "indexed": false,
          "name": "doctor",
          "type": "address"
        },
        {
          "indexed": false,
          "name": "eventType",
          "type": "uint8"
        }
      ],
      "name": "PaymentEvent",
      "type": "event"
    },
    {
      "constant": false,
      "inputs": [
        {
          "name": "_contractFactoryAddress",
          "type": "address"
        }
      ],
      "name": "setContractFactory",
      "outputs": [],
      "payable": false,
      "stateMutability": "nonpayable",
      "type": "function"
    },
    {
      "constant": false,
      "inputs": [
        {
          "name": "_doctor",
          "type": "address"
        },
        {
          "name": "_writeAccessCodeFirstPart",
          "type": "bytes32"
        },
        {
          "name": "_writeAccessCodeSecondPart",
          "type": "bytes32"
        },
        {
          "name": "_paymentCodeFirstPart",
          "type": "bytes32"
        },
        {
          "name": "_paymentCodeSecondPart",
          "type": "bytes32"
        }
      ],
      "name": "makeArrangementRequest",
      "outputs": [],
      "payable": true,
      "stateMutability": "payable",
      "type": "function"
    },
    {
      "constant": false,
      "inputs": [
        {
          "name": "_patient",
          "type": "address"
        },
        {
          "name": "_price",
          "type": "uint256"
        },
        {
          "name": "_codeFirstPart",
          "type": "bytes32"
        },
        {
          "name": "_codeSecondPart",
          "type": "bytes32"
        }
      ],
      "name": "getPayment",
      "outputs": [],
      "payable": false,
      "stateMutability": "nonpayable",
      "type": "function"
    },
    {
      "constant": false,
      "inputs": [
        {
          "name": "_patient",
          "type": "address"
        },
        {
          "name": "_doctor",
          "type": "address"
        }
      ],
      "name": "emitPaymentTriesLimitEvent",
      "outputs": [],
      "payable": false,
      "stateMutability": "nonpayable",
      "type": "function"
    },
    {
      "constant": false,
      "inputs": [
        {
          "name": "_patient",
          "type": "address"
        },
        {
          "name": "_entry",
          "type": "bytes32[]"
        },
        {
          "name": "_codeFirstPart",
          "type": "bytes32"
        },
        {
          "name": "_codeSecondPart",
          "type": "bytes32"
        }
      ],
      "name": "addEntryRequest",
      "outputs": [],
      "payable": false,
      "stateMutability": "nonpayable",
      "type": "function"
    },
    {
      "constant": false,
      "inputs": [
        {
          "name": "_patient",
          "type": "address"
        },
        {
          "name": "_entry",
          "type": "bytes32[]"
        }
      ],
      "name": "addEntryRequest",
      "outputs": [],
      "payable": false,
      "stateMutability": "nonpayable",
      "type": "function"
    }
  ],
  "bytecode": "0x608060405234801561001057600080fd5b5060008054600160a060020a03191633179055610a99806100326000396000f3fe608060405260043610610071577c010000000000000000000000000000000000000000000000000000000060003504634dbafe748114610076578063a73ab1ef146100b3578063bd94f431146100f1578063d3d666e614610124578063dbdf8d90146101e9578063f58e3515146102a9575b600080fd5b34801561008257600080fd5b506100b16004803603604081101561009957600080fd5b50600160a060020a03813581169160200135166102ee565b005b6100b1600480360360a08110156100c957600080fd5b50600160a060020a03813516906020810135906040810135906060810135906080013561032a565b3480156100fd57600080fd5b506100b16004803603602081101561011457600080fd5b5035600160a060020a03166104af565b34801561013057600080fd5b506100b16004803603608081101561014757600080fd5b600160a060020a03823516919081019060408101602082013564010000000081111561017257600080fd5b82018360208201111561018457600080fd5b803590602001918460208302840111640100000000831117156101a657600080fd5b91908080602002602001604051908101604052809392919081815260200183836020028082843760009201919091525092955050823593505050602001356104ee565b3480156101f557600080fd5b506100b16004803603604081101561020c57600080fd5b600160a060020a03823516919081019060408101602082013564010000000081111561023757600080fd5b82018360208201111561024957600080fd5b8035906020019184602083028401116401000000008311171561026b57600080fd5b9190808060200260200160405190810160405280939291908181526020018383602002808284376000920191909152509295506107db945050505050565b3480156102b557600080fd5b506100b1600480360360808110156102cc57600080fd5b50600160a060020a0381351690602081013590604081013590606001356107ec565b60408051600160a060020a038481168252831660208201526004818301529051600080516020610a4e8339815191529181900360600190a15050565b600254604080517f622bc90e0000000000000000000000000000000000000000000000000000000081523360048201529051600092600160a060020a03169163622bc90e916024808301926020929190829003018186803b15801561038e57600080fd5b505afa1580156103a2573d6000803e3d6000fd5b505050506040513d60208110156103b857600080fd5b5051604080517fbf7832c5000000000000000000000000000000000000000000000000000000008152600160a060020a03898116600483015260248201899052604482018890526064820187905260848201869052915192935083929183169163bf7832c59160a48082019260009290919082900301818387803b15801561043f57600080fd5b505af1158015610453573d6000803e3d6000fd5b50503360008181526001602090815260408083208054340190558051938452600160a060020a038d16918401919091528281019190915251600080516020610a4e8339815191529350908190036060019150a150505050505050565b600054600160a060020a03163314156104eb576002805473ffffffffffffffffffffffffffffffffffffffff1916600160a060020a0383161790555b50565b600254604080517f622bc90e000000000000000000000000000000000000000000000000000000008152600160a060020a0387811660048301529151600093929092169163622bc90e91602480820192602092909190829003018186803b15801561055857600080fd5b505afa15801561056c573d6000803e3d6000fd5b505050506040513d602081101561058257600080fd5b50516040517fd3d666e6000000000000000000000000000000000000000000000000000000008152336004820181815260448301879052606483018690526080602484019081528851608485015288519495508594600094600160a060020a0387169463d3d666e69490938c938c938c93929160a490910190602087810191028083838e5b8381101561061f578181015183820152602001610607565b5050505090500195505050505050602060405180830381600087803b15801561064757600080fd5b505af115801561065b573d6000803e3d6000fd5b505050506040513d602081101561067157600080fd5b5051905080610728577fc995c2bc9b27b75a8405ce568a52705b3a03b0fbb53c2d2d66eba25358bf4e1d8733886040518084600160a060020a0316600160a060020a0316815260200183600160a060020a0316600160a060020a0316815260200180602001828103825283818151815260200191508051906020019060200280838360005b8381101561070e5781810151838201526020016106f6565b5050505090500194505050505060405180910390a16107d2565b7fe28a3d265d258ec4020bca4e2f84d9a0f62effd110efa60f0392b47a01db6a648733886040518084600160a060020a0316600160a060020a0316815260200183600160a060020a0316600160a060020a0316815260200180602001828103825283818151815260200191508051906020019060200280838360005b838110156107bc5781810151838201526020016107a4565b5050505090500194505050505060405180910390a15b50505050505050565b6107e882826000806104ee565b5050565b600160a060020a0384166000908152600160205260409020548311610a1057600254604080517f622bc90e000000000000000000000000000000000000000000000000000000008152600160a060020a0387811660048301529151600093929092169163622bc90e91602480820192602092909190829003018186803b15801561087557600080fd5b505afa158015610889573d6000803e3d6000fd5b505050506040513d602081101561089f57600080fd5b5051604080517fca654534000000000000000000000000000000000000000000000000000000008152336004820152602481018690526044810185905290519192508291600091600160a060020a0384169163ca6545349160648082019260209290919082900301818787803b15801561091857600080fd5b505af115801561092c573d6000803e3d6000fd5b505050506040513d602081101561094257600080fd5b5051905080156109d157600160a060020a0387166000908152600160205260408082208054899003905551339188156108fc02918991818181858888f19350505050158015610995573d6000803e3d6000fd5b5060408051600160a060020a03891681523360208201526001818301529051600080516020610a4e8339815191529181900360600190a1610a08565b60408051600160a060020a03891681523360208201526002818301529051600080516020610a4e8339815191529181900360600190a15b505050610a47565b60408051600160a060020a03861681523360208201526003818301529051600080516020610a4e8339815191529181900360600190a15b5050505056febcbb593e21dcd1dacdae64e7b1dd3ce120eed9090dbb8ac78b1fe541082b9b16a165627a7a7230582081a4f1b3c254621a0f499602f90ddb42dc8fb8586ac89c3eefc478d7c9e4615c0029",
  "source": "pragma solidity >=0.4.21 <0.6.0;\n\nimport './Patient.sol';\nimport './ContractFactory.sol';\n\ncontract Interaction {\n\n  enum PaymentEvents {\n    USER_PAID_FOR_ARRENGEMENT,\n    PAYMENT_SUCCESS,\n    WRONG_PAYMENT_CODE,\n    NOT_ENOUGH_MONEY,\n    TRIES_LIMIT_EXCIDED\n  }\n\n  event RequestWriteHistory(\n    address patient,\n    address doctor,\n    bytes32[] entry\n  );\n\n  event EntryAddedByDoctor(\n    address patient,\n    address doctor,\n    bytes32[] entry\n  );\n\n  event PaymentEvent(\n    address patient,\n    address doctor,\n    PaymentEvents eventType\n  );\n\n  address owner;\n  mapping(address => uint) private balances;\n  ContractFactory private contractFactory;\n\n  constructor() public {\n    owner = msg.sender;\n  }\n\n  modifier onlyOwner() {\n    if (msg.sender == owner) _;\n  }\n\n  function setContractFactory(address _contractFactoryAddress) public onlyOwner {\n    contractFactory = ContractFactory(_contractFactoryAddress);\n  }\n\n  function makeArrangementRequest(\n    address _doctor,\n    bytes32 _writeAccessCodeFirstPart,\n    bytes32 _writeAccessCodeSecondPart,\n    bytes32 _paymentCodeFirstPart,\n    bytes32 _paymentCodeSecondPart\n  ) public payable {\n\n    address patientContractAddress = contractFactory.getContractAddress(msg.sender);\n    Patient patient = Patient(patientContractAddress);\n    patient.setCodes( _doctor,\n      _writeAccessCodeFirstPart,\n      _writeAccessCodeSecondPart,\n      _paymentCodeFirstPart,\n      _paymentCodeSecondPart);\n    \n    balances[msg.sender] += msg.value;\n    emit PaymentEvent(msg.sender, _doctor, PaymentEvents.USER_PAID_FOR_ARRENGEMENT);\n  }\n\n  function getPayment(\n    address _patient,\n    uint _price,\n    bytes32 _codeFirstPart,\n    bytes32 _codeSecondPart) public {\n    if (balances[_patient] >= _price) {\n      address patientContractAddress = contractFactory.getContractAddress(_patient);\n      Patient patient = Patient(patientContractAddress);\n      bool successCheck = patient.checkPaymentCode(msg.sender, _codeFirstPart, _codeSecondPart);\n\n      if (successCheck) {\n        balances[_patient] -= _price;\n        msg.sender.transfer(_price);\n        emit PaymentEvent(_patient, msg.sender, PaymentEvents.PAYMENT_SUCCESS);\n      } else {\n        emit PaymentEvent(_patient, msg.sender, PaymentEvents.WRONG_PAYMENT_CODE);\n      }\n    } else {\n      emit PaymentEvent(_patient, msg.sender, PaymentEvents.NOT_ENOUGH_MONEY);\n    }\n  }\n\n  function emitPaymentTriesLimitEvent(address _patient, address _doctor) public {\n    emit PaymentEvent(_patient, _doctor, PaymentEvents.TRIES_LIMIT_EXCIDED);\n  }\n\n  function addEntryRequest(\n    address _patient,\n    bytes32[] memory _entry,\n    bytes32 _codeFirstPart,\n    bytes32 _codeSecondPart) public {\n\n    address patientContractAddress = contractFactory.getContractAddress(_patient);\n    Patient patient = Patient(patientContractAddress);\n    bool response = patient.addEntryRequest(msg.sender, _entry, _codeFirstPart, _codeSecondPart);\n    if (response == false) {\n      emit RequestWriteHistory(_patient, msg.sender, _entry);\n    } else {\n      emit EntryAddedByDoctor(_patient, msg.sender, _entry);\n    }\n  }\n\n  function addEntryRequest(address _patient, bytes32[] memory _entry) public {\n    addEntryRequest(_patient, _entry, 0, 0);\n  }\n\n}\n",
  "sourcePath": "/Users/admin/Documents/Projects/medicine_confidense/contracts/Interaction.sol",
  "compiler": {
    "name": "solc",
    "version": "0.5.8+commit.23d335f2.Emscripten.clang"
  },
  "schemaVersion": "3.0.16",
  "updatedAt": "2019-12-11T16:56:16.454Z",
  "devdoc": {
    "methods": {}
  },
  "userdoc": {
    "methods": {}
  }
}