{
  "contractName": "Patient",
  "abi": [
    {
      "constant": false,
      "inputs": [
        {
          "name": "_firstName",
          "type": "string"
        },
        {
          "name": "_secondName",
          "type": "string"
        },
        {
          "name": "_email",
          "type": "string"
        },
        {
          "name": "_passportData",
          "type": "string"
        }
      ],
      "name": "setInfo",
      "outputs": [],
      "payable": false,
      "stateMutability": "nonpayable",
      "type": "function"
    },
    {
      "constant": false,
      "inputs": [
        {
          "name": "_email",
          "type": "string"
        }
      ],
      "name": "setEmail",
      "outputs": [],
      "payable": false,
      "stateMutability": "nonpayable",
      "type": "function"
    },
    {
      "constant": false,
      "inputs": [
        {
          "name": "_passportData",
          "type": "string"
        }
      ],
      "name": "setPassporData",
      "outputs": [],
      "payable": false,
      "stateMutability": "nonpayable",
      "type": "function"
    },
    {
      "constant": false,
      "inputs": [
        {
          "name": "_firstName",
          "type": "string"
        },
        {
          "name": "_secondName",
          "type": "string"
        }
      ],
      "name": "setName",
      "outputs": [],
      "payable": false,
      "stateMutability": "nonpayable",
      "type": "function"
    },
    {
      "constant": true,
      "inputs": [],
      "name": "getFirstName",
      "outputs": [
        {
          "name": "",
          "type": "string"
        }
      ],
      "payable": false,
      "stateMutability": "view",
      "type": "function"
    },
    {
      "constant": false,
      "inputs": [
        {
          "name": "_firstName",
          "type": "string"
        },
        {
          "name": "_secondName",
          "type": "string"
        },
        {
          "name": "_email",
          "type": "string"
        },
        {
          "name": "_id",
          "type": "uint256"
        },
        {
          "name": "_passportData",
          "type": "string"
        }
      ],
      "name": "setInfo",
      "outputs": [],
      "payable": false,
      "stateMutability": "nonpayable",
      "type": "function"
    },
    {
      "constant": false,
      "inputs": [
        {
          "name": "_firstName",
          "type": "string"
        }
      ],
      "name": "setName",
      "outputs": [],
      "payable": false,
      "stateMutability": "nonpayable",
      "type": "function"
    },
    {
      "inputs": [
        {
          "name": "_owner",
          "type": "address"
        },
        {
          "name": "_interactionContractAddress",
          "type": "address"
        }
      ],
      "payable": false,
      "stateMutability": "nonpayable",
      "type": "constructor"
    },
    {
      "anonymous": false,
      "inputs": [
        {
          "indexed": false,
          "name": "eventType",
          "type": "uint8"
        }
      ],
      "name": "OperationEvent",
      "type": "event"
    },
    {
      "constant": false,
      "inputs": [
        {
          "name": "_doctor",
          "type": "address"
        },
        {
          "name": "_codeFirstPart",
          "type": "bytes32"
        },
        {
          "name": "_codeSecondPart",
          "type": "bytes32"
        }
      ],
      "name": "setDoctorWriteCode",
      "outputs": [],
      "payable": false,
      "stateMutability": "nonpayable",
      "type": "function"
    },
    {
      "constant": false,
      "inputs": [
        {
          "name": "_doctor",
          "type": "address"
        },
        {
          "name": "_codeFirstPart",
          "type": "bytes32"
        },
        {
          "name": "_codeSecondPart",
          "type": "bytes32"
        }
      ],
      "name": "setPaymentCode",
      "outputs": [],
      "payable": false,
      "stateMutability": "nonpayable",
      "type": "function"
    },
    {
      "constant": false,
      "inputs": [
        {
          "name": "_doctor",
          "type": "address"
        },
        {
          "name": "_codeFirstPart",
          "type": "bytes32"
        },
        {
          "name": "_codeSecondPart",
          "type": "bytes32"
        }
      ],
      "name": "checkPaymentCode",
      "outputs": [
        {
          "name": "",
          "type": "bool"
        }
      ],
      "payable": false,
      "stateMutability": "nonpayable",
      "type": "function"
    },
    {
      "constant": false,
      "inputs": [
        {
          "name": "_doctor",
          "type": "address"
        },
        {
          "name": "_writeAccessCodeFirstPart",
          "type": "bytes32"
        },
        {
          "name": "_writeAccessCodeSecondPart",
          "type": "bytes32"
        },
        {
          "name": "_paymentCodeFirstPart",
          "type": "bytes32"
        },
        {
          "name": "_paymentCodeSecondPart",
          "type": "bytes32"
        }
      ],
      "name": "setCodes",
      "outputs": [],
      "payable": false,
      "stateMutability": "nonpayable",
      "type": "function"
    },
    {
      "constant": true,
      "inputs": [],
      "name": "getDoctors",
      "outputs": [
        {
          "name": "",
          "type": "address[]"
        }
      ],
      "payable": false,
      "stateMutability": "view",
      "type": "function"
    },
    {
      "constant": false,
      "inputs": [
        {
          "name": "_doctor",
          "type": "address"
        },
        {
          "name": "_secret",
          "type": "bytes32[]"
        }
      ],
      "name": "setDoctorPermanentAccessRead",
      "outputs": [],
      "payable": false,
      "stateMutability": "nonpayable",
      "type": "function"
    },
    {
      "constant": false,
      "inputs": [
        {
          "name": "_doctor",
          "type": "address"
        },
        {
          "name": "_isAllowed",
          "type": "bool"
        }
      ],
      "name": "setDoctorPermanentAccessWrite",
      "outputs": [],
      "payable": false,
      "stateMutability": "nonpayable",
      "type": "function"
    },
    {
      "constant": true,
      "inputs": [],
      "name": "getHistoryForDoctor",
      "outputs": [
        {
          "name": "",
          "type": "bytes32[]"
        }
      ],
      "payable": false,
      "stateMutability": "view",
      "type": "function"
    },
    {
      "constant": true,
      "inputs": [],
      "name": "getHistory",
      "outputs": [
        {
          "name": "",
          "type": "bytes32[]"
        }
      ],
      "payable": false,
      "stateMutability": "view",
      "type": "function"
    },
    {
      "constant": true,
      "inputs": [
        {
          "name": "_doctor",
          "type": "address"
        }
      ],
      "name": "isDoctorHavePermanentWriteAccess",
      "outputs": [
        {
          "name": "",
          "type": "bool"
        }
      ],
      "payable": false,
      "stateMutability": "view",
      "type": "function"
    },
    {
      "constant": true,
      "inputs": [
        {
          "name": "_doctor",
          "type": "address"
        }
      ],
      "name": "getDoctorKey",
      "outputs": [
        {
          "name": "",
          "type": "bytes32"
        }
      ],
      "payable": false,
      "stateMutability": "view",
      "type": "function"
    },
    {
      "constant": false,
      "inputs": [
        {
          "name": "_entry",
          "type": "bytes32[]"
        }
      ],
      "name": "addEntryRequest",
      "outputs": [],
      "payable": false,
      "stateMutability": "nonpayable",
      "type": "function"
    },
    {
      "constant": false,
      "inputs": [
        {
          "name": "_doctor",
          "type": "address"
        },
        {
          "name": "_entry",
          "type": "bytes32[]"
        },
        {
          "name": "_codeFirstPart",
          "type": "bytes32"
        },
        {
          "name": "_codeSecondPart",
          "type": "bytes32"
        }
      ],
      "name": "addEntryRequest",
      "outputs": [
        {
          "name": "",
          "type": "bool"
        }
      ],
      "payable": false,
      "stateMutability": "nonpayable",
      "type": "function"
    },
    {
      "constant": false,
      "inputs": [
        {
          "name": "_encryptedPrivateKey",
          "type": "bytes32[]"
        }
      ],
      "name": "setKeys",
      "outputs": [],
      "payable": false,
      "stateMutability": "nonpayable",
      "type": "function"
    },
    {
      "constant": true,
      "inputs": [],
      "name": "getEncryptedPrivateKey",
      "outputs": [
        {
          "name": "",
          "type": "bytes32[]"
        }
      ],
      "payable": false,
      "stateMutability": "view",
      "type": "function"
    }
  ],
  "bytecode": "0x60806040526009805460ff1916905534801561001a57600080fd5b50604051604080611d788339810180604052604081101561003a57600080fd5b50805160209091015160018054600160a060020a03938416600160a060020a03199182161790915560008054939092169281168317909155600280549091169091179055611ceb8061008d6000396000f3fe608060405234801561001057600080fd5b506004361061015f576000357c010000000000000000000000000000000000000000000000000000000090048063b13d5d94116100d5578063d08ccb2411610099578063d08ccb2414610c40578063d3d666e614610c78578063e6e733ab14610d30578063eb09200514610d38578063eb6539f214610ddb578063ebd99e4214610e0d5761015f565b8063b13d5d9414610a6f578063b88bb97b14610a77578063bf7832c514610b2a578063c47f002714610b68578063ca65453414610c0e5761015f565b80635c707f07116101275780635c707f071461054d578063887a7bd91461067a578063932997f11461071d5780639f1f00d31461079a578063aa15efc8146109dd578063ae7eb54614610a355761015f565b806308f43d85146101645780631873f41a14610198578063282b065a146103d3578063399258a9146104795780635a885fa5146104a7575b600080fd5b6101966004803603606081101561017a57600080fd5b50600160a060020a038135169060208101359060400135610e15565b005b610196600480360360808110156101ae57600080fd5b8101906020810181356401000000008111156101c957600080fd5b8201836020820111156101db57600080fd5b803590602001918460018302840111640100000000831117156101fd57600080fd5b91908080601f016020809104026020016040519081016040528093929190818152602001838380828437600092019190915250929594936020810193503591505064010000000081111561025057600080fd5b82018360208201111561026257600080fd5b8035906020019184600183028401116401000000008311171561028457600080fd5b91908080601f01602080910402602001604051908101604052809392919081815260200183838082843760009201919091525092959493602081019350359150506401000000008111156102d757600080fd5b8201836020820111156102e957600080fd5b8035906020019184600183028401116401000000008311171561030b57600080fd5b91908080601f016020809104026020016040519081016040528093929190818152602001838380828437600092019190915250929594936020810193503591505064010000000081111561035e57600080fd5b82018360208201111561037057600080fd5b8035906020019184600183028401116401000000008311171561039257600080fd5b91908080601f016020809104026020016040519081016040528093929190818152602001838380828437600092019190915250929550610ecc945050505050565b610196600480360360208110156103e957600080fd5b81019060208101813564010000000081111561040457600080fd5b82018360208201111561041657600080fd5b8035906020019184600183028401116401000000008311171561043857600080fd5b91908080601f016020809104026020016040519081016040528093929190818152602001838380828437600092019190915250929550610f4b945050505050565b6101966004803603604081101561048f57600080fd5b50600160a060020a0381351690602001351515610f8b565b610196600480360360208110156104bd57600080fd5b8101906020810181356401000000008111156104d857600080fd5b8201836020820111156104ea57600080fd5b8035906020019184600183028401116401000000008311171561050c57600080fd5b91908080601f016020809104026020016040519081016040528093929190818152602001838380828437600092019190915250929550611035945050505050565b6101966004803603604081101561056357600080fd5b81019060208101813564010000000081111561057e57600080fd5b82018360208201111561059057600080fd5b803590602001918460018302840111640100000000831117156105b257600080fd5b91908080601f016020809104026020016040519081016040528093929190818152602001838380828437600092019190915250929594936020810193503591505064010000000081111561060557600080fd5b82018360208201111561061757600080fd5b8035906020019184600183028401116401000000008311171561063957600080fd5b91908080601f016020809104026020016040519081016040528093929190818152602001838380828437600092019190915250929550611070945050505050565b6101966004803603602081101561069057600080fd5b8101906020810181356401000000008111156106ab57600080fd5b8201836020820111156106bd57600080fd5b803590602001918460208302840111640100000000831117156106df57600080fd5b9190808060200260200160405190810160405280939291908181526020018383602002808284376000920191909152509295506110bf945050505050565b61072561111f565b6040805160208082528351818301528351919283929083019185019080838360005b8381101561075f578181015183820152602001610747565b50505050905090810190601f16801561078c5780820380516001836020036101000a031916815260200191505b509250505060405180910390f35b610196600480360360a08110156107b057600080fd5b8101906020810181356401000000008111156107cb57600080fd5b8201836020820111156107dd57600080fd5b803590602001918460018302840111640100000000831117156107ff57600080fd5b91908080601f016020809104026020016040519081016040528093929190818152602001838380828437600092019190915250929594936020810193503591505064010000000081111561085257600080fd5b82018360208201111561086457600080fd5b8035906020019184600183028401116401000000008311171561088657600080fd5b91908080601f01602080910402602001604051908101604052809392919081815260200183838082843760009201919091525092959493602081019350359150506401000000008111156108d957600080fd5b8201836020820111156108eb57600080fd5b8035906020019184600183028401116401000000008311171561090d57600080fd5b91908080601f0160208091040260200160405190810160405280939291908181526020018383808284376000920191909152509295843595909490935060408101925060200135905064010000000081111561096857600080fd5b82018360208201111561097a57600080fd5b8035906020019184600183028401116401000000008311171561099c57600080fd5b91908080601f0160208091040260200160405190810160405280939291908181526020018383808284376000920191909152509295506111b6945050505050565b6109e5611261565b60408051602080825283518183015283519192839290830191858101910280838360005b83811015610a21578181015183820152602001610a09565b505050509050019250505060405180910390f35b610a5b60048036036020811015610a4b57600080fd5b5035600160a060020a03166112e1565b604080519115158252519081900360200190f35b6109e5611304565b61019660048036036040811015610a8d57600080fd5b600160a060020a038235169190810190604081016020820135640100000000811115610ab857600080fd5b820183602082011115610aca57600080fd5b80359060200191846020830284011164010000000083111715610aec57600080fd5b91908080602002602001604051908101604052809392919081815260200183836020028082843760009201919091525092955061138e945050505050565b610196600480360360a0811015610b4057600080fd5b50600160a060020a038135169060208101359060408101359060608101359060800135611438565b61019660048036036020811015610b7e57600080fd5b810190602081018135640100000000811115610b9957600080fd5b820183602082011115610bab57600080fd5b80359060200191846001830284011164010000000083111715610bcd57600080fd5b91908080601f0160208091040260200160405190810160405280939291908181526020018383808284376000920191909152509295506114e9945050505050565b610a5b60048036036060811015610c2457600080fd5b50600160a060020a038135169060208101359060400135611524565b610c6660048036036020811015610c5657600080fd5b5035600160a060020a03166116b0565b60408051918252519081900360200190f35b610a5b60048036036080811015610c8e57600080fd5b600160a060020a038235169190810190604081016020820135640100000000811115610cb957600080fd5b820183602082011115610ccb57600080fd5b80359060200191846020830284011164010000000083111715610ced57600080fd5b91908080602002602001604051908101604052809392919081815260200183836020028082843760009201919091525092955050823593505050602001356116ce565b6109e56117dc565b61019660048036036020811015610d4e57600080fd5b810190602081018135640100000000811115610d6957600080fd5b820183602082011115610d7b57600080fd5b80359060200191846020830284011164010000000083111715610d9d57600080fd5b919080806020026020016040519081016040528093929190818152602001838360200280828437600092019190915250929550611832945050505050565b61019660048036036060811015610df157600080fd5b50600160a060020a0381351690602081013590604001356118a2565b6109e5611932565b600154600160a060020a0316331480610e385750600254600160a060020a031633145b15610ec757600160a060020a0383166000908152600d602052604090205460ff16610e6657610e66836119a6565b600160a060020a0383166000908152600c6020526040908190206004810184905560058101839055600601805460ff1916600317905551600080516020611ca08339815191529060019080825b60ff16815260200191505060405180910390a15b505050565b600154600160a060020a0316331480610eef5750600254600160a060020a031633145b15610f45578351610f07906003906020870190611b74565b508251610f1b906004906020860190611b74565b508151610f2f906005906020850190611b74565b508051610f43906007906020840190611b74565b505b50505050565b600154600160a060020a0316331480610f6e5750600254600160a060020a031633145b15610f88578051610f86906005906020840190611b74565b505b50565b600154600160a060020a0316331480610fae5750600254600160a060020a031633145b15610f8657600160a060020a0382166000908152600d602052604090205460ff16610fdc57610fdc826119a6565b600160a060020a0382166000908152600c602052604090819020805461ff0019166101008415150217905551600080516020611ca08339815191529060049080825b60ff16815260200191505060405180910390a15050565b600154600160a060020a03163314806110585750600254600160a060020a031633145b15610f88578051610f86906007906020840190611b74565b600154600160a060020a03163314806110935750600254600160a060020a031633145b15610f865781516110ab906003906020850190611b74565b508051610ec7906004906020840190611b74565b600154600160a060020a03163314806110e25750600254600160a060020a031633145b15610f88576110f081611b2f565b604051600080516020611ca08339815191529060059080825b60ff16815260200191505060405180910390a150565b60038054604080516020601f60026000196101006001881615020190951694909404938401819004810282018101909252828152606093909290918301828280156111ab5780601f10611180576101008083540402835291602001916111ab565b820191906000526020600020905b81548152906001019060200180831161118e57829003601f168201915b505050505090505b90565b600654610f43576040805160a08101825286815260208082018790529181018590526060810184905260808101839052865190916003916111fc918391908a0190611b74565b5060208281015180516112159260018501920190611b74565b5060408201518051611231916002840191602090910190611b74565b506060820151600382015560808201518051611257916004840191602090910190611b74565b5050505050505050565b600154606090600160a060020a03163314806112875750600254600160a060020a031633145b156111b357600b8054806020026020016040519081016040528092919081815260200182805480156111ab57602002820191906000526020600020905b8154815260200190600101908083116112c4575050505050905090565b600160a060020a03166000908152600c6020526040902054610100900460ff1690565b600154606090600160a060020a031633148061132a5750600254600160a060020a031633145b156111b357600a8054806020026020016040519081016040528092919081815260200182805480156111ab57602002820191906000526020600020905b8154600160a060020a03168152600190910190602001808311611367575050505050905090565b600154600160a060020a03163314806113b15750600254600160a060020a031633145b15610f8657600160a060020a0382166000908152600d602052604090205460ff166113df576113df826119a6565b600160a060020a0382166000908152600c60209081526040909120805460ff191660019081178255835161141a939290910191840190611bf2565b50604051600080516020611ca083398151915290600390808261101e565b600154600160a060020a031633148061145b5750600254600160a060020a031633145b15610f4357600160a060020a0385166000908152600d602052604090205460ff1661148957611489856119a6565b600160a060020a0385166000908152600c602090815260409182902060028082018890556003820187905560048201869055600590910184905582519081529151600080516020611ca08339815191529281900390910190a15050505050565b600154600160a060020a031633148061150c5750600254600160a060020a031633145b15610f88578051610f86906003906020840190611b74565b600160a060020a0383166000908152600d6020526040812054849060ff161515600114156116a857600160a060020a0385166000908152600c602052604090206006015460ff166115ff5760008054600154604080517f4dbafe74000000000000000000000000000000000000000000000000000000008152600160a060020a039283166004820152898316602482015290519190921692634dbafe74926044808201939182900301818387803b1580156115de57600080fd5b505af11580156115f2573d6000803e3d6000fd5b50505050600091506116a8565b600160a060020a0385166000908152600c6020526040902060040154841480156116435750600160a060020a0385166000908152600c602052604090206005015483145b1561167457600160a060020a0385166000908152600c602052604081206004810182905560050155600191506116a8565b600160a060020a0385166000908152600c60205260408120600601805460ff19811660ff9182166000190190911617905591505b509392505050565b600160a060020a03166000908152600c602052604090206004015490565b600160a060020a0384166000908152600d6020526040812054859060ff161515600114156117d357600154600160a060020a031633141561171257600091506117d3565b61171a611c2c565b50600160a060020a0386166000818152600c602081815260408084208151808301909252600281015482526003810154828401529490935252905460ff610100909104161515600114806117925750841580159061177757508315155b80156117835750805185145b80156117925750838160200151145b156117cd576117a086611b2f565b50600160a060020a0386166000908152600c602052604081206002810182905560030155600191506117d3565b60009250505b50949350505050565b606060088054806020026020016040519081016040528092919081815260200182805480156111ab57602002820191906000526020600020908154815260200190600101908083116112c4575050505050905090565b600154600160a060020a03163314806118555750600254600160a060020a031633145b15610f885760095460ff16610f88578051611877906008906020840190611bf2565b506009805460ff19166001179055604051600080516020611ca0833981519152906006908082611109565b600154600160a060020a03163314806118c55750600254600160a060020a031633145b15610ec757600160a060020a0383166000908152600d602052604090205460ff166118f3576118f3836119a6565b600160a060020a0383166000908152600c60205260408082206002810185905560030183905551600080516020611ca083398151915291908082610eb3565b336000908152600c602052604090205460609060ff161515600114156111b357600b8054806020026020016040519081016040528092919081815260200182805480156111ab57602002820191906000526020600020908154815260200190600101908083116112c4575050505050905090565b6119ae611c2c565b5060408051808201909152600080825260208201526119cb611c2c565b50604080518082019091526000808252602082015260606119ea611c43565b506040805160c081018252600080825260208083018281528385018681526060850189905260808501889052600360a0860152600160a060020a038a168452600c83529490922083518154935115156101000261ff001991151560ff1990951694909417169290921782559251805192938493611a6d9260018501920190611bf2565b506060820151805160028301556020908101516003830155608083015180516004840155810151600583015560a0909201516006909101805460ff90921660ff19928316179055600160a060020a039096166000818152600d9092526040822080549097166001908117909755600a805497880181559091527fc65a7bb8d6351c1cf70c95a316cc6a92839c986682d98bc35f958f4883f9d2a8909501805473ffffffffffffffffffffffffffffffffffffffff191690951790945550505050565b60005b8151811015610f8657600b828281518110611b4957fe5b6020908102919091018101518254600181810185556000948552929093209092019190915501611b32565b828054600181600116156101000203166002900490600052602060002090601f016020900481019282601f10611bb557805160ff1916838001178555611be2565b82800160010185558215611be2579182015b82811115611be2578251825591602001919060010190611bc7565b50611bee929150611c85565b5090565b828054828255906000526020600020908101928215611be25791602002820182811115611be2578251825591602001919060010190611bc7565b604080518082019091526000808252602082015290565b6040805161010081018252600080825260208201526060918101829052908101611c6b611c2c565b8152602001611c78611c2c565b8152600060209091015290565b6111b391905b80821115611bee5760008155600101611c8b56fe130ab193f8ad0433e8d1d6da9e2d39a9c17353344662f4e7cb18888079592bf3a165627a7a72305820cc98ec0e8136ea29791b9841af4b67867654edb8feacf63ee7630f7f5621dcc20029",
  "source": "pragma solidity >=0.4.21 <0.6.0;\n\nimport './Person.sol';\nimport './Interaction.sol';\n\n\ncontract Patient is Person {\n\n  enum Events {\n    WRITE_CODE_SET,\n    PAYMENT_CODE_SET,\n    CODES_SET,\n    READ_ACCESS_SET,\n    WRITE_ACCESS_SET,\n    ENTRY_ADDED,\n    KEYS_FOR_DATA_SET\n  }\n\n  event OperationEvent(\n    Events eventType\n  );\n\n  struct Key {\n    bytes32 firstPart;\n    bytes32 secondPart;\n  }\n\n  struct DoctorStruct {\n    bool isAllowPermanentAccessToRead;\n    bool isAllowPermanentAccessToWrite;\n    bytes32[] secret;\n    Key writeAccessCode;\n    Key paymentCode;\n    uint8 paymentTries;\n  }\n\n  bytes32[] encryptedPrivateKey;\n  bool isEncryptedPrivateKeySet = false;\n\n  address[] private doctorsAddresses;\n  bytes32[] private history;\n\n  mapping(address => DoctorStruct) doctors;\n  mapping(address => bool) knownDoctors;\n\n  constructor(address _owner, address _interactionContractAddress) public Person(_owner, _interactionContractAddress) {\n  }\n\n  modifier onlyDoctorInContract(address _doctor) {\n    if (knownDoctors[_doctor] == true) _;\n  }\n\n  modifier onlyDoctorsWithReadPermanentAccess() {\n    if (doctors[msg.sender].isAllowPermanentAccessToRead == true) _;\n  }\n\n  function addDoctor(address _doctor) internal {\n    Key memory writeAccessCode = Key(0, 0);\n    Key memory paymentCode = Key(0, 0);\n    bytes32[] memory secret;\n\n    DoctorStruct memory doctor = DoctorStruct(false, false, secret, writeAccessCode, paymentCode, 3);\n    doctors[_doctor] = doctor;\n    knownDoctors[_doctor] = true;\n    doctorsAddresses.push(_doctor);\n  }\n\n  function setDoctorWriteCode(address _doctor, bytes32 _codeFirstPart, bytes32 _codeSecondPart) public onlyOwner {\n    if (knownDoctors[_doctor] == false) {\n      addDoctor(_doctor);\n    }\n    doctors[_doctor].writeAccessCode.firstPart = _codeFirstPart;\n    doctors[_doctor].writeAccessCode.secondPart = _codeSecondPart;\n    emit OperationEvent(Events.WRITE_CODE_SET);\n  }\n\n  function setPaymentCode(address _doctor, bytes32 _codeFirstPart, bytes32 _codeSecondPart) public onlyOwner {\n    if (knownDoctors[_doctor] == false) {\n      addDoctor(_doctor);\n    }\n    doctors[_doctor].paymentCode.firstPart = _codeFirstPart;\n    doctors[_doctor].paymentCode.secondPart = _codeSecondPart;\n    doctors[_doctor].paymentTries = 3;\n    emit OperationEvent(Events.PAYMENT_CODE_SET);\n  }\n\n  function checkPaymentCode(\n    address _doctor,\n    bytes32 _codeFirstPart,\n    bytes32 _codeSecondPart) external onlyDoctorInContract(_doctor) returns(bool) {\n    if (doctors[_doctor].paymentTries == 0) {\n      // emit event to user that doctor tries to get money but with wrong code\n      interactionContract.emitPaymentTriesLimitEvent(owner, _doctor);\n      return false;\n    }\n    if (doctors[_doctor].paymentCode.firstPart == _codeFirstPart && doctors[_doctor].paymentCode.secondPart == _codeSecondPart) {\n      doctors[_doctor].paymentCode.firstPart = 0;\n      doctors[_doctor].paymentCode.secondPart = 0;\n      return true;\n    } else {\n      doctors[_doctor].paymentTries--;\n      return false;\n    }\n  }\n\n  function setCodes(\n    address _doctor,\n    bytes32 _writeAccessCodeFirstPart,\n    bytes32 _writeAccessCodeSecondPart,\n    bytes32 _paymentCodeFirstPart,\n    bytes32 _paymentCodeSecondPart) public onlyOwner {\n\n    if (knownDoctors[_doctor] == false) {\n      addDoctor(_doctor);\n    }\n    doctors[_doctor].writeAccessCode.firstPart = _writeAccessCodeFirstPart;\n    doctors[_doctor].writeAccessCode.secondPart = _writeAccessCodeSecondPart;\n\n    doctors[_doctor].paymentCode.firstPart = _paymentCodeFirstPart;\n    doctors[_doctor].paymentCode.secondPart = _paymentCodeSecondPart;\n\n    emit OperationEvent(Events.CODES_SET);\n  }\n\n  function getDoctors() public view onlyOwner returns(address[] memory) {\n    return doctorsAddresses;\n  }\n\n  function setDoctorPermanentAccessRead(address _doctor, bytes32[] memory _secret) public onlyOwner {\n    if (knownDoctors[_doctor] == false) {\n      addDoctor(_doctor);\n    }\n    doctors[_doctor].isAllowPermanentAccessToRead = true;\n    doctors[_doctor].secret = _secret;\n    emit OperationEvent(Events.READ_ACCESS_SET);\n  }\n\n  function setDoctorPermanentAccessWrite(address _doctor, bool _isAllowed) public onlyOwner {\n    if (knownDoctors[_doctor] == false) {\n      addDoctor(_doctor);\n    }\n    doctors[_doctor].isAllowPermanentAccessToWrite = _isAllowed;\n    emit OperationEvent(Events.WRITE_ACCESS_SET);\n  }\n\n  // doctors with permanent address can use this function\n  function getHistoryForDoctor() public onlyDoctorsWithReadPermanentAccess view returns (bytes32[] memory) {\n    return history;\n  }\n\n  // retreiving user history for owner\n  function getHistory() external onlyOwner view returns (bytes32[] memory) {\n    return history;\n  }\n\n  function isDoctorHavePermanentWriteAccess(address _doctor) public view returns(bool) {\n    return doctors[_doctor].isAllowPermanentAccessToWrite;\n  }\n\n  function getDoctorKey(address _doctor) public view returns(bytes32) {\n    return doctors[_doctor].paymentCode.firstPart;\n  }\n\n  // doctor calls this method from interaction contract and if he has permanent access\n  // to the the histrory, he can add it immediatly\n  // if doesnt then event on adding request is sent to the user to approve such action\n  function addEntryRequest(\n    address _doctor,\n    bytes32[] memory _entry,\n    bytes32 _codeFirstPart,\n    bytes32 _codeSecondPart) public onlyDoctorInContract(_doctor) returns (bool) {\n      if (msg.sender == owner) {\n        return false;\n      }\n\n      Key memory key = doctors[_doctor].writeAccessCode;\n\n      if (doctors[_doctor].isAllowPermanentAccessToWrite == true ||\n      (_codeFirstPart != 0 && _codeSecondPart != 0 && key.firstPart == _codeFirstPart && key.secondPart == _codeSecondPart)) {\n\n        addEntry(_entry);\n        doctors[_doctor].writeAccessCode.firstPart = 0;\n        doctors[_doctor].writeAccessCode.secondPart = 0;\n        return true;\n      }  else {\n        return false;\n      }\n  }\n\n  // if user is agreed on add entry request then user adds this entry to the contract by his own\n  function addEntryRequest(bytes32[] memory _entry) public onlyOwner {\n    addEntry(_entry);\n    emit OperationEvent(Events.ENTRY_ADDED);\n  }\n\n  function addEntry(bytes32[] memory _entry) internal {\n    for (uint i = 0; i < _entry.length; i++) {\n      history.push(_entry[i]);\n    }\n  }\n\n  function setKeys(\n    bytes32[] memory _encryptedPrivateKey) public onlyOwner {\n    if (isEncryptedPrivateKeySet == false) {\n      encryptedPrivateKey = _encryptedPrivateKey;\n      isEncryptedPrivateKeySet = true;\n      emit OperationEvent(Events.KEYS_FOR_DATA_SET);\n    }\n  }\n\n  // getter for encrypted data decryption key\n  // this key is encrypted by owner account public key\n  function getEncryptedPrivateKey() public view returns (bytes32[] memory) {\n    return encryptedPrivateKey;\n  }\n}\n",
  "sourcePath": "/Users/admin/Documents/Projects/medicine_confidense/contracts/Patient.sol",
  "compiler": {
    "name": "solc",
    "version": "0.5.8+commit.23d335f2.Emscripten.clang"
  },
  "schemaVersion": "3.0.16",
  "updatedAt": "2019-12-11T14:19:19.872Z",
  "devdoc": {
    "methods": {}
  },
  "userdoc": {
    "methods": {}
  }
}