{
  "contractName": "Person",
  "abi": [
    {
      "inputs": [
        {
          "name": "_owner",
          "type": "address"
        },
        {
          "name": "_interactionContractAddress",
          "type": "address"
        }
      ],
      "payable": false,
      "stateMutability": "nonpayable",
      "type": "constructor"
    },
    {
      "constant": false,
      "inputs": [
        {
          "name": "_firstName",
          "type": "string"
        },
        {
          "name": "_secondName",
          "type": "string"
        },
        {
          "name": "_email",
          "type": "string"
        },
        {
          "name": "_passportData",
          "type": "string"
        }
      ],
      "name": "setInfo",
      "outputs": [],
      "payable": false,
      "stateMutability": "nonpayable",
      "type": "function"
    },
    {
      "constant": false,
      "inputs": [
        {
          "name": "_firstName",
          "type": "string"
        },
        {
          "name": "_secondName",
          "type": "string"
        },
        {
          "name": "_email",
          "type": "string"
        },
        {
          "name": "_id",
          "type": "uint256"
        },
        {
          "name": "_passportData",
          "type": "string"
        }
      ],
      "name": "setInfo",
      "outputs": [],
      "payable": false,
      "stateMutability": "nonpayable",
      "type": "function"
    },
    {
      "constant": false,
      "inputs": [
        {
          "name": "_firstName",
          "type": "string"
        },
        {
          "name": "_secondName",
          "type": "string"
        }
      ],
      "name": "setName",
      "outputs": [],
      "payable": false,
      "stateMutability": "nonpayable",
      "type": "function"
    },
    {
      "constant": false,
      "inputs": [
        {
          "name": "_firstName",
          "type": "string"
        }
      ],
      "name": "setName",
      "outputs": [],
      "payable": false,
      "stateMutability": "nonpayable",
      "type": "function"
    },
    {
      "constant": false,
      "inputs": [
        {
          "name": "_email",
          "type": "string"
        }
      ],
      "name": "setEmail",
      "outputs": [],
      "payable": false,
      "stateMutability": "nonpayable",
      "type": "function"
    },
    {
      "constant": false,
      "inputs": [
        {
          "name": "_passportData",
          "type": "string"
        }
      ],
      "name": "setPassporData",
      "outputs": [],
      "payable": false,
      "stateMutability": "nonpayable",
      "type": "function"
    },
    {
      "constant": true,
      "inputs": [],
      "name": "getFirstName",
      "outputs": [
        {
          "name": "",
          "type": "string"
        }
      ],
      "payable": false,
      "stateMutability": "view",
      "type": "function"
    }
  ],
  "bytecode": "0x608060405234801561001057600080fd5b50604051604080610cc98339810180604052604081101561003057600080fd5b50805160209091015160018054600160a060020a03938416600160a060020a03199182161790915560008054939092169281168317909155600280549091169091179055610c46806100836000396000f3fe608060405234801561001057600080fd5b506004361061009a576000357c0100000000000000000000000000000000000000000000000000000000900480635c707f07116100785780635c707f0714610428578063932997f1146105555780639f1f00d3146105d2578063c47f0027146108155761009a565b80631873f41a1461009f578063282b065a146102dc5780635a885fa514610382575b600080fd5b6102da600480360360808110156100b557600080fd5b8101906020810181356401000000008111156100d057600080fd5b8201836020820111156100e257600080fd5b8035906020019184600183028401116401000000008311171561010457600080fd5b91908080601f016020809104026020016040519081016040528093929190818152602001838380828437600092019190915250929594936020810193503591505064010000000081111561015757600080fd5b82018360208201111561016957600080fd5b8035906020019184600183028401116401000000008311171561018b57600080fd5b91908080601f01602080910402602001604051908101604052809392919081815260200183838082843760009201919091525092959493602081019350359150506401000000008111156101de57600080fd5b8201836020820111156101f057600080fd5b8035906020019184600183028401116401000000008311171561021257600080fd5b91908080601f016020809104026020016040519081016040528093929190818152602001838380828437600092019190915250929594936020810193503591505064010000000081111561026557600080fd5b82018360208201111561027757600080fd5b8035906020019184600183028401116401000000008311171561029957600080fd5b91908080601f0160208091040260200160405190810160405280939291908181526020018383808284376000920191909152509295506108bb945050505050565b005b6102da600480360360208110156102f257600080fd5b81019060208101813564010000000081111561030d57600080fd5b82018360208201111561031f57600080fd5b8035906020019184600183028401116401000000008311171561034157600080fd5b91908080601f01602080910402602001604051908101604052809392919081815260200183838082843760009201919091525092955061093a945050505050565b6102da6004803603602081101561039857600080fd5b8101906020810181356401000000008111156103b357600080fd5b8201836020820111156103c557600080fd5b803590602001918460018302840111640100000000831117156103e757600080fd5b91908080601f01602080910402602001604051908101604052809392919081815260200183838082843760009201919091525092955061097a945050505050565b6102da6004803603604081101561043e57600080fd5b81019060208101813564010000000081111561045957600080fd5b82018360208201111561046b57600080fd5b8035906020019184600183028401116401000000008311171561048d57600080fd5b91908080601f01602080910402602001604051908101604052809392919081815260200183838082843760009201919091525092959493602081019350359150506401000000008111156104e057600080fd5b8201836020820111156104f257600080fd5b8035906020019184600183028401116401000000008311171561051457600080fd5b91908080601f0160208091040260200160405190810160405280939291908181526020018383808284376000920191909152509295506109b5945050505050565b61055d610a09565b6040805160208082528351818301528351919283929083019185019080838360005b8381101561059757818101518382015260200161057f565b50505050905090810190601f1680156105c45780820380516001836020036101000a031916815260200191505b509250505060405180910390f35b6102da600480360360a08110156105e857600080fd5b81019060208101813564010000000081111561060357600080fd5b82018360208201111561061557600080fd5b8035906020019184600183028401116401000000008311171561063757600080fd5b91908080601f016020809104026020016040519081016040528093929190818152602001838380828437600092019190915250929594936020810193503591505064010000000081111561068a57600080fd5b82018360208201111561069c57600080fd5b803590602001918460018302840111640100000000831117156106be57600080fd5b91908080601f016020809104026020016040519081016040528093929190818152602001838380828437600092019190915250929594936020810193503591505064010000000081111561071157600080fd5b82018360208201111561072357600080fd5b8035906020019184600183028401116401000000008311171561074557600080fd5b91908080601f016020809104026020016040519081016040528093929190818152602001838380828437600092019190915250929584359590949093506040810192506020013590506401000000008111156107a057600080fd5b8201836020820111156107b257600080fd5b803590602001918460018302840111640100000000831117156107d457600080fd5b91908080601f016020809104026020016040519081016040528093929190818152602001838380828437600092019190915250929550610aa0945050505050565b6102da6004803603602081101561082b57600080fd5b81019060208101813564010000000081111561084657600080fd5b82018360208201111561085857600080fd5b8035906020019184600183028401116401000000008311171561087a57600080fd5b91908080601f016020809104026020016040519081016040528093929190818152602001838380828437600092019190915250929550610b4b945050505050565b600154600160a060020a03163314806108de5750600254600160a060020a031633145b156109345783516108f6906003906020870190610b82565b50825161090a906004906020860190610b82565b50815161091e906005906020850190610b82565b508051610932906007906020840190610b82565b505b50505050565b600154600160a060020a031633148061095d5750600254600160a060020a031633145b15610977578051610975906005906020840190610b82565b505b50565b600154600160a060020a031633148061099d5750600254600160a060020a031633145b15610977578051610975906007906020840190610b82565b600154600160a060020a03163314806109d85750600254600160a060020a031633145b156109755781516109f0906003906020850190610b82565b508051610a04906004906020840190610b82565b505050565b60038054604080516020601f6002600019610100600188161502019095169490940493840181900481028201810190925282815260609390929091830182828015610a955780601f10610a6a57610100808354040283529160200191610a95565b820191906000526020600020905b815481529060010190602001808311610a7857829003601f168201915b505050505090505b90565b600654610932576040805160a0810182528681526020808201879052918101859052606081018490526080810183905286519091600391610ae6918391908a0190610b82565b506020828101518051610aff9260018501920190610b82565b5060408201518051610b1b916002840191602090910190610b82565b506060820151600382015560808201518051610b41916004840191602090910190610b82565b5050505050505050565b600154600160a060020a0316331480610b6e5750600254600160a060020a031633145b156109775780516109759060039060208401905b828054600181600116156101000203166002900490600052602060002090601f016020900481019282601f10610bc357805160ff1916838001178555610bf0565b82800160010185558215610bf0579182015b82811115610bf0578251825591602001919060010190610bd5565b50610bfc929150610c00565b5090565b610a9d91905b80821115610bfc5760008155600101610c0656fea165627a7a72305820a9c715b41fd63becac2e465e9cf37fd4906ca0eba59bebb58780a88ee353a65c0029",
  "source": "pragma solidity >=0.4.21 <0.6.0;\n\nimport './Interaction.sol';\n\ncontract Person {\n  struct PersonInfo {\n    string firstName;\n    string secondName;\n    string email;\n    uint id;\n    string passportData;\n  }\n\n  Interaction internal interactionContract;\n\n  address internal owner;\n  address internal allowedContract;\n  PersonInfo internal personInfo;\n\n  constructor(address _owner, address _interactionContractAddress) public {\n    owner = _owner;\n    interactionContract = Interaction(_interactionContractAddress);\n    allowedContract = _interactionContractAddress;\n  }\n\n  modifier onlyOwner() {\n    if (msg.sender == owner || msg.sender == allowedContract) _;\n  }\n\n  modifier onlyFirtsTime() {\n    if (personInfo.id == 0) _;\n  }\n\n  function setInfo(\n    string memory _firstName,\n    string memory _secondName,\n    string memory _email,\n    uint _id,\n    string memory _passportData\n  ) public onlyFirtsTime {\n    personInfo = PersonInfo(_firstName, _secondName, _email, _id, _passportData);\n  }\n\n  function setInfo(string memory _firstName, string memory _secondName, string memory _email, string memory _passportData) public onlyOwner {\n    personInfo.firstName = _firstName;\n    personInfo.secondName = _secondName;\n    personInfo.email = _email;\n    personInfo.passportData = _passportData;\n  }\n\n  function setName(string memory _firstName, string memory _secondName) public onlyOwner {\n    personInfo.firstName = _firstName;\n    personInfo.secondName = _secondName;\n  }\n\n  function setName(string memory _firstName) public onlyOwner {\n    personInfo.firstName = _firstName;\n  }\n\n  function setEmail(string memory _email) public onlyOwner {\n    personInfo.email = _email;\n  }\n\n  function setPassporData(string memory _passportData) public onlyOwner {\n    personInfo.passportData = _passportData;\n  }\n\n  function getFirstName() public view returns(string memory) {\n    return personInfo.firstName;\n  }\n\n}\n",
  "sourcePath": "/Users/admin/Documents/Projects/medicine_confidense/contracts/Person.sol",
  "compiler": {
    "name": "solc",
    "version": "0.5.8+commit.23d335f2.Emscripten.clang"
  },
  "schemaVersion": "3.0.16",
  "updatedAt": "2019-12-11T14:19:19.881Z",
  "devdoc": {
    "methods": {}
  },
  "userdoc": {
    "methods": {}
  }
}